:020000020000FC
:10000000B0CBB7C8FFFFFFFFFFFFFFFFFFFFBDC87B
:10001000FFFFFFFFFFFFFFFFFFFFFFFFFFFFFFFFF0
:10002000FFFFFFFFFFFFFFFFFFFFFFFFFFFFFFFFE0
:10003000C3C4FFFFFFFFFFFFFFFFFFFFFFFFFF2026
:1000400090016709270901270901270901270901EB
:100050002709013B09014109096F09044D09036F93
:100060000901530901590903610901560950500951
:10007000015D09015B09FB009001F1098909018912
:100080000901890901890901890901910901930976
:10009000098609019809019A09029E0901A109012D
:1000A000A40901BE0901E80901EE0901AC0901B882
:1000B0000901BB0901EB094495090CE509FB750031
:1000C00082020000E200A001F018D2DBC801202F5C
:1000D00026952695F894009164000E7F00936400A5
:1000E00030E0220FE0E8F2E0E20FF31F008100931E
:1000F0007C00009164000160009364001181F901AB
:10010000E258FD4F0181EFDAA02FF0E0E82FEF5524
:10011000FE4F4080B0E01AC05091C8024091C70223
:100120003091C6022091C5021A2F092F00DB3DD065
:10013000E0EAF1E0008103950083023030F0033003
:1001400020F0043010F001E00083B395B415F8946A
:1001500018F3FADA00E010E00093850000938400C1
:10016000B59A90E0880F991FE2E8F2E0E80FF91FD6
:1001700000B705FF13C019D0B5990BC000918400DA
:100180001091850020E21032B8F300E00083218353
:1001900008C0009186001091870001C001E0008333
:1001A0001183D4DA02D0E5E06FCB0091C9020FBF12
:1001B00008950AD000E0E2E8F2E0048F058FE0D273
:1001C0008991089501D0FCCF8A9380E003C0082F65
:1001D000E3D0839588D0D8F3089500E00093BA0265
:1001E00004E00093940204E10093970205E0009379
:1001F000980200E00093960204E10093950201E06A
:100200000093930203E000939902D6D200E0E2E863
:10021000F2E0008F018F08952BDB442490E0A2E8E8
:10022000B2E0FD01428E438E448D558D9801241B12
:10023000350B048F158F068D178D020F131F068F38
:10024000178F05C0085C1040068F178F9395068D99
:10025000178D083C1405B0F70091BB02002341F054
:10026000091718F44092BB0203C0091B0093BB029C
:10027000EFD2FD01008D118D0030140511F0F80151
:10028000099580E004C08C012CD1402A83952BD0A5
:10029000D0F3442021F0FD01038D0160038F00E0C5
:1002A0000093920280E018C0482F3CD0F801EE5530
:1002B000FD4F0081087179F0282F26952695269507
:1002C000482F477001E05ADA30E0FD01E20FF31FDA
:1002D0001089102B108B839506D030F3FD01028D11
:1002E000138DE5E0D1CA0091BA0280170895702FEE
:1002F000612F4091BA0216D0E2EAF2E0E00DF11D62
:1003000023836770660F660F660F648375830481AD
:100310000C7F3370032B0483EAEBF2E0008103953A
:100320000083089550E006E010E032CAA2DA602FA0
:1003300020E030E0402FF6DFA2EAB2E0A00DB11DD0
:10034000FD015581038110E04091930237DA802F3F
:10035000043008F484E00091BA026017D0F4052F4D
:10036000F1D19801082F0695069510E090E0081B42
:1003700010400217130724F4FD0104810B7F04834E
:10038000819590408217930724F0FD010481046059
:1003900004838901E4E079CA8A93802F08D0482F2A
:1003A00045D001E000830FE001838991089561DA6F
:1003B0003CD0058112E01083ACE9B2E01C911260E0
:1003C0001C9310E0128320E8F801EE55FD4F228FB8
:1003D00079C04FDAC4D1E2E8F2E0E20FF31FA2E8FD
:1003E000B2E0A20FB31F1A3018F00D911C9111C08A
:1003F0006ED02D913C9111972017310718F40150C0
:10040000104007C02D913C910217130718F40F5F9D
:100410001F4F60D057C081D120812360208305D039
:1004200000E1008300E001830895402F82D1E2EAD9
:10043000F2E0E00DF11D08951CDA212F402F50E06D
:10044000440F551FFA01EE57FD4F60817181E2E8BC
:10045000F2E0E40FF51F10E0A2EAB2E0A00FB11F36
:1004600036D00617170780F45A960C91020F0C939A
:10047000102F5A97009198020058101718F124D0A5
:100480000F5F1F4F27D01EC06017710780F45A9668
:100490000C91021B0C9300E810919702011B1C9118
:1004A0005A97011778F010D001501040EBCFFD01A2
:1004B000028D013810F00A95028F028D003810F479
:1004C0000395028FE4E0E1C900E85A960C93008599
:1004D000118508950087118720D10081086000836D
:1004E0000895C0D9902E412EAA2455241FDFC8019B
:1004F000492D1FD1A2EAB2E0A00DB11DFD0103817B
:100500004481437043953FD9023008F402E0638090
:10051000772410E0601A710A0C910A9571F00A951F
:10052000E1F00250A9F1045009F4AAC0085009F4FE
:100530007FC0005109F4B6C0D3C0EBD00260018384
:10054000FD011181058145DFFD0101810A950183CE
:1005500011F4092D2CDFCAD0C3C0048102FF06C0EC
:10056000092D02D1502ED6D00061B9C0CAD020F0DA
:1005700004E00C93A282B2C0442009F4B1C00091FF
:10058000BB02002309F0ACC0142D058155DFA8C0C3
:10059000B8D008F44AC0A7D003950283448008E38A
:1005A000402246944694469499F1882406C00081DE
:1005B000003139F1083029F183940091BA02801694
:1005C00028F58914C9F3482DB4D022EA622E22E01E
:1005D000722E600C711CF301048108730695069558
:1005E0000695041549F7082DA1DEFD012381AC0114
:1005F000421B5040F3012381021B1040401751075A
:10060000B4F6FD015282AA24A394D6CFAA2039F4CD
:1006100000919402002319F07CD0086001836BD014
:1006200008F45EC0092DF7DE5BC0092DC0DE58C09E
:10063000048102FF08C010E8092D96D0502E6AD020
:100640000061018388CF63D00615170520F408E008
:100650000C936AD0F6CF64D04ED010F40395028389
:1006600000919602002309F476CF1181101718F437
:10067000012F040DE6CF092D8FDE4BD00260E1CFB4
:1006800032D0002391F243D06016710620F400E1CD
:100690000C9346D002C048D00183FD0102810A9527
:1006A00002831EC0258102EA12E0020F1A1DF80122
:1006B000228D2395228FFD012481F801028D22FDD8
:1006C00005C007FFB2CF00E10C930AC01091990258
:1006D000011720F0092D60DE539445CF25D001830A
:1006E000052DEBE0CBC802D0028108950091950260
:1006F0000093BB020895FD0102811091940201173D
:10070000089505D0FD0123810217104008958C0142
:1007100014C0539402D001810895ECE9F2E00895E9
:10072000FCDF00810160DBCE5394F7DF01810460C0
:10073000089550E006E010E02BC8112312F400E009
:1007400010E008950CD0F901EE57FD4FC0DEF9011D
:10075000EE57FD4F20813181021B130B0895202F8E
:1007600030E0220F331F089584D8212F5EDEA5814B
:10077000B0E0A454BD4F2C9300E2008301E0A2CE70
:1007800001E00093A00100E00093C0020093C102C9
:100790000093C2020093C3020093C4020DEF13E062
:1007A00016D04091C4023091C3022091C202109130
:1007B000C0020091C10275C700E020E4F0E0E02F24
:1007C000EF55FE4F208303950430B8F3089551D8B8
:1007D000D80180E00CC0482F50E006E010E0D8D7E8
:1007E000F801EE55FD4F0581FD01099583950091B6
:1007F000BA02801780F3E4E048C8602F6370069562
:100800000695202F30E0220FF901E258FD4F19D054
:100810001081102B1083F901E058FD4F12D0118187
:10082000102B1183660F660FEEE6F2E0E60FF31F62
:100830002281E381F0E0E054FD4F0081022B008330
:100840000895408101E010E0B3D7E0ECF2E00895B4
:100850000BD80FB70093C902A0917B00B0B74090AE
:1008600080005090810066B2809184009091850054
:100870007090640080907C0000E400937B0004E0B2
:1008800000BF00E00093800001E800938100F8942D
:1008900000E614E09CDFA0937B00B0BF4092800094
:1008A0005092810066BA9093850080938400709284
:1008B000640080927C000091C9020FBFE9E0E0C7AC
:1008C000202F237030E0220F220FEEE6F2E0E20F3D
:1008D000F31F408151814030530719F01281FA0112
:1008E00009950091C9020FBF08950093BA000FEF58
:1008F0000093BB0004E039C01091BC00012F0170CF
:1009000008950091BC0000FDFCCF0091C601089540
:10091000B0D7422F2091BC0020FDFCCFB5D040A322
:1009200020E00CC0D801A20FB31F5C91DF01A20F21
:10093000B31F5C9323952417A8F32395241718F469
:1009400020E030E0F8CF00E002A308EF01A30CD0D4
:10095000E4E09BC70091BC0000FDFCCF00E00093E9
:10096000C70108EF0093C60105EC0093BC00089591
:100970003091BC0030FDFCCF3091C70130FFFCCF7F
:1009800040E050E009C0FA01E653FD4F3081F80124
:10099000E40FF51F308343954217A8F378D00D7FFD
:1009A00002A3ADCF0091C901013218F000E200931B
:1009B000C9010091C9010895BA93AA93FA93EA93E1
:1009C0003A932A931A930A933FB70091B9000058BB
:1009D00009F446C0005109F443C0005189F10850A0
:1009E00049F0005169F0085019F1005A91F1005195
:1009F00069F145C049D000E004A302A1086002A348
:100A000043D004A110E0DF01A00FB11F0C910093AF
:100A1000BB0004A1039504A305ECA7DF3FBF099128
:100A2000199129913991E991F991A991B991189563
:100A30002BD004A110A1011729F402A1016002A387
:100A400004E0EBCF0091B90001A3FACF20D00460FD
:100A500002A31DD0026002A300E004A303A3DCCF25
:100A600013D02091BB00A3A1B0E0A653BD4F2C939F
:100A700003A1039503A302A1016002A3CDCF0091BE
:100A8000B9000093C601DCCFE5EAF1E00895E5EA9C
:100A9000F1E002A108958A93802F5CDF082F8991ED
:100AA000089500E008952197188328D0F0D021966A
:100AB0000895F7CFECC08A9321971091F901101790
:100AC000C9F00093F9010023389A99F0409A80E028
:100AD00002E0809FEAECF1E0E00DF11D01810DD014
:100AE0000081D5D08395813198F30091EC0165D0D8
:100AF00001C04098219689910895088311E09E01D4
:100B00000895B7D62497812F0730E0F510E0AAECBE
:100B1000B1E0A00FB11FFD0103A1081799F183A354
:100B2000082F0F70B1F001E0C6DF01E00B83E6DFB4
:100B30002D5F2FD08883E2DF28D00983DFDF2F5F8E
:100B400028D00091EC010A83D9DF2E5F3F4F00E2ED
:100B500018C000E028D013A11F7031F403950730AE
:100B6000C8F300E0A8DF0EC001E00A83C7DF2E5FF4
:100B700010D000EE0983C2DF2F5F3F4F06D0BDDFEC
:100B80000FE785D02496E4E080C6FD0102A57FD062
:100B900088CF3F4F0FE77BC0073010F00FEF08956D
:100BA00002D003A10895F0E0E02FE653FE4F089530
:100BB00021970093EC0101D07ACF088311E09E01C8
:100BC00000E265C08A932197802F00E00BD0882334
:100BD00011F002E001C00CE090DF0DE258D001E01E
:100BE00001D088CF088311E09E0100E350C0089532
:100BF0002BD009D0419830D02AD02EC0399A4198B4
:100C000002D0419A29C028D025D0399A08951FD002
:100C1000102F08E017FB399A16F4419A01C0419849
:100C20000ED03A9A429A0BD0110F11D00A9591F733
:100C300013D00AD00FD006B10AD00270089523E075
:100C40002A95F1F700000895399A419A08953A9A41
:100C5000429808953A9A429A03E00A95F1F7000003
:100C6000089506D6402E812F922FDA01C1DF440C61
:100C7000042DCDDF442403C00D91C9DF43944816F1
:100C8000D8F3992309F4BADFE7DFE5E0FDC5609703
:100C9000103108F01FE0088300E050E009C0F901BE
:100CA000E00FF51F6081FE01E00FF51F61830395E2
:100CB0000117A8F3AE0120E0139504E7D2DF00E0AE
:100CC0006096089550D0003529F503EE1AE00083B0
:100CD000118304EE1AE00283138301EE1AE0048309
:100CE00015830683178305EE1AE00087118702EF4C
:100CF0001AE0028713870FEF1AE00487158706E0D2
:100D00001BE00687178704E11BE0008B118B0EE1C7
:100D10001BE026C001E515E00083118303E515E023
:100D20000283138309E515E0048315830AE515E0C2
:100D3000068317830BE515E00087118701E815E0AE
:100D4000028713870CEC15E00487158708ED15E082
:100D50000687178702EE15E0008B118B07EF15E071
:100D6000028B138B0895EAEFF1E00895F89410E8F0
:100D700010936100009361007894089578D5D6D1DE
:100D8000B6D1B8D100E0EAE9F2E0008301837894BB
:100D9000AEE2B2E001E000935F020AEF402E01E014
:100DA000502E8AEE92E001C00FD2FC0120813181E9
:100DB00089010F5F1F4F008311832130304128F0DC
:100DC00099D100E0FC010083018300915F020430AF
:100DD00051F400E0F2012085F18526D304E0C6DF5E
:100DE000F89403D2CED100915F02033079F441D15F
:100DF000FD0107A900FF02C0E7D101C0FDD10091AC
:100E00006D02002391F241D127D1CFCFFD0100A186
:100E100011A1013B144010F000E065D200916D0279
:100E2000002309F449C031D100916002002319F078
:100E3000FD010A9502ABFD0106ADFC0100FF04C0F7
:100E400003810395038303C004810395048304D1C4
:100E500000FB26F5FD0100A111A10F5F1F4F00A3AC
:100E600011A30091920205AF76D310916502013073
:100E700041F4112311F4579A5F98FD0106AD01600A
:100E800019C0FD0110FF02C026A922FFF2D01123D4
:100E900079F0033069F400E006AF0AC000E0FD011C
:100EA00000A301A307A900FF02C006A902FFE1D029
:100EB00006AD0E7F06AFC2D200E04A9901E0FD0107
:100EC00000FB07A900F907AB01A9002311F411E009
:100ED00001C010E007A90D7F110F012B07AB109186
:100EE000EC021017C1F0002359F4A3D001AF20D3B6
:100EF000F2012685F78598D200E000936C0207C0C6
:100F0000112329F400A50093EF0200E006AF009141
:100F100065020093EC02B0D0B1F006AD00FF13C043
:100F200000AD002381F485D002AF01AF0EE100AF28
:100F300071D2002329F000E0F2012089F18974D2F6
:100F400001E00093690298D091F008E702AB06AD8A
:100F500000FB01F906AF01FF07C000E00093ED02BE
:100F600006AD005F06AF03C000E00093EE0205A9E6
:100F70000130A9F4E9D2C9F106AD00FF36C00091F5
:100F8000ED02013390F106A902FD2FC06CD000FDE7
:100F900048D055D00FE001AF00E000AF59D005A90F
:100FA000023079F4D1D209F106AD00FF1EC006A9C6
:100FB00002FD1BC006AD007FC1F055D000FD31D051
:100FC0003DD005A9002389F4BFD279F006AD00FF1A
:100FD0000CC006A902FD09C006AD02950F700230D3
:100FE00020F041D000FD1DD029D007A50035A1F487
:100FF00005A5002379F406A5002319F000A50F70BC
:1010000049F400AD002331F401AD002319F402AD21
:10101000002311F008E702AB07A900FDC5CEECD014
:10102000C4CE07E813E101501040E9F700C000000A
:10103000089506A90B7F06AB00E0089509D006A924
:10104000046006AB00EF02AF04A9039504AB08955A
:1010500006AD0F7006AF0895FD0102A113A1DCD803
:1010600010FBD6F3089505D0DCDF579A5F9807A9E7
:10107000089557985F980895FD0106AD01FB00E0C3
:1010800000F916AD11700117089500E000936D028C
:10109000FC01008301830895009154020093A20192
:1010A0000093A301E3E9F2E003E0018305E0048398
:1010B000058300E003830AE0028301E0008303E08C
:1010C0000683089509D000E00CD001E00AD002E0C8
:1010D0000ED902D003E00BC933E02091530210E097
:1010E000089505D933E0209152022695F8CFEADF22
:1010F00060D8D2CF00E00093700000912C020295DE
:10110000007F0093B30000917000026000937000B4
:101110000091B10005600093B10003E00093B000BE
:101120000091B100077F0093B1000895A2D302E0BF
:101130001DDE05B7006105BF3A98429803EC19E03F
:1011400001501040E9F700C00000329903C000E5EB
:1011500000935D0200915D02B5DD529807E8C5DBA2
:10116000F9DB01E0A2E0B2E0ED91FC910995E4E049
:101170008CC31A930A931FB704D01FBF099119910A
:10118000189503B70E7F03BF0895FA93EA934A9325
:101190003A932A931A930A934FB701E000936D0292
:1011A00000912C0210912D029BD022A133A1200F7F
:1011B000311F22A333A34FBF09911991299139916E
:1011C0004991E991F991189500916002002361F429
:1011D00000E00093690003B7016003BF07E003BFAD
:1011E000889503B70E7F03BF089503B7016003BF5F
:1011F00005E003BF889508957FDB002391F40091FB
:10120000C70100FF0CC001FF06C020E20EE212E0A1
:10121000AFDB08D06BD070DB002319F49BCB71DB04
:101220003ADC089526D3BEDB10912E0210935E02A5
:1012300090915E029F3F19F4002309F450C0809101
:101240002F02AAEFB1E0092FE0E4F0E0C6C28F70F0
:10125000806E182F292FF0E02F70E22FE05EFD4FF7
:101260000081DFD000915E0210E00F7039D0E00FF6
:10127000F11F80A734C0082F6AD1D6D080935C02BA
:101280002EC0C8D0081759F1C8D0082FFD012089F9
:10129000F189CAD080935B0222C080935F021FC095
:1012A000809355021CC08093520205C08093530264
:1012B00002C08093540291D71ADF00E011D013D0FE
:1012C0000EC08093630200E00093620208C0903871
:1012D00030F4182F092FFD012281F381A5D047CFCB
:1012E000EEE2F2E0089500A301A36CC7C0D22297FA
:1012F00059DB023008F082C0AEE2B2E02D0191E08D
:1013000080915E02082FE8E7F0E067C200916A0270
:1013100070C0082F10E00F70FD01E00FF11F00A555
:1013200068C006D166C076D064C000915D0261C01D
:101330000DE45FC0EFE3F0E004915BC000915F0259
:1013400058C00091920255C000916B0200932E028A
:10135000FD0106A90E7F0AC00091610200932E02D2
:1013600000E000936102FD0106A90D7F06AB43C0BA
:10137000009162023EC0009163023BC00AE8402E29
:1013800002E0502E80E090E051D08830E8F302E88F
:10139000402E02E0502E01C049D08031E8F3092FE1
:1013A000C5D708831983288132D0298130D09395FD
:1013B0009430A8F39AE12091920223D020919202D6
:1013C000217083951ED02D0116C00091550211C0C9
:1013D000009152020EC0009153020BC000915402C2
:1013E00008C0803840F4082FEAEFF1E02081F18155
:1013F0001BD000932E02292F82018ADA2296E6E082
:1014000042C2E82FF0E0E25DFD4F20830895F9DF4E
:101410008395089500915B02089510915602009102
:101420002002FD012285F385E22F0994F20101914A
:101430002F01FC01E25DFD4F0083EACF19D2ACE041
:10144000B2E0ED91FC91539709958EE292E0009104
:101450006802002319F0FC010A9502AF00916602B0
:10146000002301F1FC010A9500AF003120F01EE1DC
:10147000412E401A01C0402E06A902FF05C00FE010
:10148000041901AF00E000AF56D061D0CDDF00916C
:101490005602102F0F70400E00E14016A0F00FE032
:1014A000402E11C000916702002399F0FC010A95BB
:1014B00001AF0FE0402E00916702401A3CD047D0A8
:1014C000B3DF10915602107F0FE040221429A7DFEE
:1014D0002DC000916902002399F0FC0106A902FDCC
:1014E0000FC09BDF25D033D09FDF94DF002329F08E
:1014F00001E0FD012089F18997DF00E00093690296
:1015000000916C02007F11F0FC01A2DDFC0106A934
:1015100002FF0CC019D051F002AD002339F406A926
:101520000B7F06AB0FE000AF00E001AFE5E0ACC120
:1015300000915C020895FCDF142D110F110F010FB3
:10154000003408F00FE3089507A900230895FD0172
:101550002685F78508958DD1802F90E001E0E6D6AD
:10156000D80102E0E3D68970BBDE24A130E0A00FF1
:10157000B11F2A173B070CF48460E6DF81F017A146
:10158000112369F0282F2123012F007F19F421173F
:1015900031F404C0003119F4222309F092E086707E
:1015A00009F09160092FE3CD559A5D9801E204BDE1
:1015B0000AE005BD00E006BD0FEF07BD00E008BD75
:1015C000089500E00895FDCFFCCF1091F6021017AA
:1015D00041F00093F602002309F0E6CF00E004BDDD
:1015E00005BD089516951770E0EFF2E00081011730
:1015F00029F010830181019F069408BC08950023FF
:1016000011F00FEF08950091F002089506950F7103
:10161000102FE0EFF2E02181201729F001830081F3
:10162000109F069408BC0895E2EFF2E02BE83FEF2C
:101630002083318310E01383028308951CD1E2EFED
:10164000F2E00281002359F1008111810F5F1F4FE9
:1016500000831183DAF003818081912F8C329040D6
:1016600024F40F3FC9F00B5F12C0312F883510E012
:10167000310794F08438310724F4002369F00550D1
:1016800006C0132F803B20E010401CF400E00383D1
:1016900003C02383208321830381069508BDE2E0F4
:1016A000F6C06F939F9368B1902F9095692368B9A6
:1016B0006BB1912F909569236BB9902F67B1692B0E
:1016C00067B96AB1912F692B6AB9922F909565B16C
:1016D000692365B964B1922F692B64B95C98549AF7
:1016E0009F916F9108956F939F936AB16093C70222
:1016F0006093C50267B16093C8026093C602602F11
:1017000060959091C50296239093C502612F6095D4
:101710009091C60296239093C60200270000000015
:1017200000006091C60267B99F916F9108952AB930
:1017300003B900000000000057B9000000000000DD
:1017400037B94AB903B908955C9A08955C986091D5
:10175000C80267B9000000000000089500008895E5
:10176000FECF0FE90DBF01E00EBFC0E4D1E096D07F
:10177000002309F0A3D002DBF1DFF0CF4A9512F08D
:10178000000FE1F708954A9512F00695E1F70895E4
:10179000002411240030010741F01695079510F43C
:1017A000040E151E440F551FF5CF002D112D089561
:1017B0004A951AF0000F111FFBCF08954A951AF0B1
:1017C00015950795FBCF08957591659155914591B4
:1017D000159011FA259035900895F9DF041B10E05B
:1017E00003C0F4DF041B150B20E030E005C0ECDF84
:1017F000041B150B260B370BB8F010FC17C04591D6
:101800000590E00FF11F0417100540E0240734078E
:1018100058F436F404910024F101E01BF009099416
:10182000E00FF11F25903590F101099411F4D6F7DE
:10183000F1CF31960EF0319650E060E070E04591C6
:101840004B3F48F089F34F3F29F04E3F11F075911F
:10185000659155914591041B150B260B370B39F3F8
:1018600018F3E7CFAA929A928A927A926A925A923F
:101870004A92BA93AA939A938A930895AA849984D0
:1018800088847F806E805D804C80BB81AA81998135
:101890008881F0E0EC0FFD1FEF01089501E008954D
:1018A00020E006D0E9F70895259102D0E9F70895E0
:1018B0002D9301501040202F212B08958EEB90E0A6
:1018C000FC0105911491FC013296A591B491FC01A3
:1018D000349625913491422F432B19F0F901E4DF1E
:1018E00001C0DEDF069610E08A3C910748F30895B8
:1018F00001404040400000000000000000000000E7
:1019000000000000000000000000000000000000D7
:10191000000000000000F80000007F000108113FF7
:1019200020007F01010007000D00130019001E00B8
:101930007F0021482D007F002D04300100000000B1
:101940000000000001070D13190000000000000056
:101950000000000000000000000000000000000087
:101960000000000000000000000000000000000077
:101970000301040002000000000000000C00000051
:101980000000000000000000000000000000000057
:101990000000000000000000000000000000000047
:1019A00000000A0A40080000000000000042000099
:1019B00000000000000000000000000000006500C2
:1019C00020026500100265008002650040020308E5
:1019D0000308FFFFFFFFFFFFFFFFFFFFFFFFFFFF0A
:1019E000FFFFFFFFFFFFFFFFFFFFFFFFFFFFFFFF07
:1019F000FFFFFFFFFFFFFFFFFFFFFFFFFFFFFFFFF7
:101A0000FFFFFFFFFFFFFFFFFFFFFFFFFFFFFFFFE6
:101A1000FFFFFFFFFFFFFFFFFFFFFFFFFFFFFFFFD6
:101BF000FFFFFFFFFFFFFFFFFFFFFFFFFFFF50950E
:0400000300000000F9
:00000001FF
